{
  "_format": "hh-sol-artifact-1",
  "contractName": "TaskMarketplace",
  "sourceName": "contracts/TaskMarketplace.sol",
  "abi": [
    {
      "anonymous": false,
      "inputs": [
        {
          "indexed": true,
          "internalType": "uint256",
          "name": "id",
          "type": "uint256"
        },
        {
          "indexed": false,
          "internalType": "string",
          "name": "description",
          "type": "string"
        }
      ],
      "name": "TaskCreated",
      "type": "event"
    },
    {
      "inputs": [
        {
          "internalType": "uint256",
          "name": "_taskId",
          "type": "uint256"
        }
      ],
      "name": "completeTask",
      "outputs": [],
      "stateMutability": "nonpayable",
      "type": "function"
    },
    {
      "inputs": [
        {
          "internalType": "string",
          "name": "_description",
          "type": "string"
        },
        {
          "internalType": "uint256",
          "name": "_reward",
          "type": "uint256"
        }
      ],
      "name": "createTask",
      "outputs": [],
      "stateMutability": "nonpayable",
      "type": "function"
    },
    {
      "inputs": [],
      "name": "getTaskCount",
      "outputs": [
        {
          "internalType": "uint256",
          "name": "",
          "type": "uint256"
        }
      ],
      "stateMutability": "view",
      "type": "function"
    },
    {
      "inputs": [
        {
          "internalType": "uint256",
          "name": "",
          "type": "uint256"
        }
      ],
      "name": "tasks",
      "outputs": [
        {
          "internalType": "uint256",
          "name": "id",
          "type": "uint256"
        },
        {
          "internalType": "string",
          "name": "description",
          "type": "string"
        },
        {
          "internalType": "uint256",
          "name": "reward",
          "type": "uint256"
        },
        {
          "internalType": "address",
          "name": "creator",
          "type": "address"
        },
        {
          "internalType": "bool",
          "name": "isCompleted",
          "type": "bool"
        }
      ],
      "stateMutability": "view",
      "type": "function"
    }
  ],
  "bytecode": "0x6080604052348015600f57600080fd5b50610bd28061001f6000396000f3fe608060405234801561001057600080fd5b506004361061004c5760003560e01c806304fe2b34146100515780638d9776721461006d578063c17a340e146100a1578063e1e29558146100bf575b600080fd5b61006b600480360381019061006691906105b6565b6100db565b005b61008760048036038101906100829190610612565b61022b565b604051610098959493929190610729565b60405180910390f35b6100a9610326565b6040516100b69190610783565b60405180910390f35b6100d960048036038101906100d49190610612565b610332565b005b60006040518060a0016040528060008054905081526020018481526020018381526020013373ffffffffffffffffffffffffffffffffffffffff16815260200160001515815250908060018154018082558091505060019003906000526020600020906004020160009091909190915060008201518160000155602082015181600101908161016a91906109aa565b506040820151816002015560608201518160030160006101000a81548173ffffffffffffffffffffffffffffffffffffffff021916908373ffffffffffffffffffffffffffffffffffffffff16021790555060808201518160030160146101000a81548160ff021916908315150217905550505060016000805490506101f09190610aab565b7fa5ed9e6226c584326505694539c95cb0e3238ae09bcda5a65c00bbfdab1c66628360405161021f9190610adf565b60405180910390a25050565b6000818154811061023b57600080fd5b9060005260206000209060040201600091509050806000015490806001018054610264906107cd565b80601f0160208091040260200160405190810160405280929190818152602001828054610290906107cd565b80156102dd5780601f106102b2576101008083540402835291602001916102dd565b820191906000526020600020905b8154815290600101906020018083116102c057829003601f168201915b5050505050908060020154908060030160009054906101000a900473ffffffffffffffffffffffffffffffffffffffff16908060030160149054906101000a900460ff16905085565b60008080549050905090565b3373ffffffffffffffffffffffffffffffffffffffff166000828154811061035d5761035c610b01565b5b906000526020600020906004020160030160009054906101000a900473ffffffffffffffffffffffffffffffffffffffff1673ffffffffffffffffffffffffffffffffffffffff16146103e5576040517f08c379a00000000000000000000000000000000000000000000000000000000081526004016103dc90610b7c565b60405180910390fd5b6001600082815481106103fb576103fa610b01565b5b906000526020600020906004020160030160146101000a81548160ff02191690831515021790555050565b6000604051905090565b600080fd5b600080fd5b600080fd5b600080fd5b6000601f19601f8301169050919050565b7f4e487b7100000000000000000000000000000000000000000000000000000000600052604160045260246000fd5b61048d82610444565b810181811067ffffffffffffffff821117156104ac576104ab610455565b5b80604052505050565b60006104bf610426565b90506104cb8282610484565b919050565b600067ffffffffffffffff8211156104eb576104ea610455565b5b6104f482610444565b9050602081019050919050565b82818337600083830152505050565b600061052361051e846104d0565b6104b5565b90508281526020810184848401111561053f5761053e61043f565b5b61054a848285610501565b509392505050565b600082601f8301126105675761056661043a565b5b8135610577848260208601610510565b91505092915050565b6000819050919050565b61059381610580565b811461059e57600080fd5b50565b6000813590506105b08161058a565b92915050565b600080604083850312156105cd576105cc610430565b5b600083013567ffffffffffffffff8111156105eb576105ea610435565b5b6105f785828601610552565b9250506020610608858286016105a1565b9150509250929050565b60006020828403121561062857610627610430565b5b6000610636848285016105a1565b91505092915050565b61064881610580565b82525050565b600081519050919050565b600082825260208201905092915050565b60005b8381101561068857808201518184015260208101905061066d565b60008484015250505050565b600061069f8261064e565b6106a98185610659565b93506106b981856020860161066a565b6106c281610444565b840191505092915050565b600073ffffffffffffffffffffffffffffffffffffffff82169050919050565b60006106f8826106cd565b9050919050565b610708816106ed565b82525050565b60008115159050919050565b6107238161070e565b82525050565b600060a08201905061073e600083018861063f565b81810360208301526107508187610694565b905061075f604083018661063f565b61076c60608301856106ff565b610779608083018461071a565b9695505050505050565b6000602082019050610798600083018461063f565b92915050565b7f4e487b7100000000000000000000000000000000000000000000000000000000600052602260045260246000fd5b600060028204905060018216806107e557607f821691505b6020821081036107f8576107f761079e565b5b50919050565b60008190508160005260206000209050919050565b60006020601f8301049050919050565b600082821b905092915050565b6000600883026108607fffffffffffffffffffffffffffffffffffffffffffffffffffffffffffffffff82610823565b61086a8683610823565b95508019841693508086168417925050509392505050565b6000819050919050565b60006108a76108a261089d84610580565b610882565b610580565b9050919050565b6000819050919050565b6108c18361088c565b6108d56108cd826108ae565b848454610830565b825550505050565b600090565b6108ea6108dd565b6108f58184846108b8565b505050565b5b818110156109195761090e6000826108e2565b6001810190506108fb565b5050565b601f82111561095e5761092f816107fe565b61093884610813565b81016020851015610947578190505b61095b61095385610813565b8301826108fa565b50505b505050565b600082821c905092915050565b600061098160001984600802610963565b1980831691505092915050565b600061099a8383610970565b9150826002028217905092915050565b6109b38261064e565b67ffffffffffffffff8111156109cc576109cb610455565b5b6109d682546107cd565b6109e182828561091d565b600060209050601f831160018114610a145760008415610a02578287015190505b610a0c858261098e565b865550610a74565b601f198416610a22866107fe565b60005b82811015610a4a57848901518255600182019150602085019450602081019050610a25565b86831015610a675784890151610a63601f891682610970565b8355505b6001600288020188555050505b505050505050565b7f4e487b7100000000000000000000000000000000000000000000000000000000600052601160045260246000fd5b6000610ab682610580565b9150610ac183610580565b9250828203905081811115610ad957610ad8610a7c565b5b92915050565b60006020820190508181036000830152610af98184610694565b905092915050565b7f4e487b7100000000000000000000000000000000000000000000000000000000600052603260045260246000fd5b7f4f6e6c792063726561746f722063616e20636f6d706c65746500000000000000600082015250565b6000610b66601983610659565b9150610b7182610b30565b602082019050919050565b60006020820190508181036000830152610b9581610b59565b905091905056fea2646970667358221220226486574110a82a519b2901ea5f55991ce1813bc14ee89e55758c103d98785964736f6c634300081c0033",
  "linkReferences": {},
  "deployedLinkReferences": {}
}