{
  "_format": "hh-sol-artifact-1",
  "contractName": "AgentRegistry",
  "sourceName": "contracts/AgentRegistry.sol",
  "abi": [
    {
      "inputs": [
        {
          "internalType": "address",
          "name": "",
          "type": "address"
        }
      ],
      "name": "agents",
      "outputs": [
        {
          "internalType": "string",
          "name": "name",
          "type": "string"
        },
        {
          "internalType": "address",
          "name": "walletAddress",
          "type": "address"
        },
        {
          "internalType": "uint256",
          "name": "reputation",
          "type": "uint256"
        }
      ],
      "stateMutability": "view",
      "type": "function"
    },
    {
      "inputs": [
        {
          "internalType": "string",
          "name": "_name",
          "type": "string"
        }
      ],
      "name": "register",
      "outputs": [],
      "stateMutability": "nonpayable",
      "type": "function"
    }
  ],
  "bytecode": "0x6080604052348015600f57600080fd5b5061085f8061001f6000396000f3fe608060405234801561001057600080fd5b50600436106100365760003560e01c8063f2c298be1461003b578063fd66091e14610057575b600080fd5b61005560048036038101906100509190610392565b610089565b005b610071600480360381019061006c9190610439565b610166565b6040516100809392919061050d565b60405180910390f35b60405180606001604052808281526020013373ffffffffffffffffffffffffffffffffffffffff16815260200160648152506000803373ffffffffffffffffffffffffffffffffffffffff1673ffffffffffffffffffffffffffffffffffffffff168152602001908152602001600020600082015181600001908161010e9190610757565b5060208201518160010160006101000a81548173ffffffffffffffffffffffffffffffffffffffff021916908373ffffffffffffffffffffffffffffffffffffffff1602179055506040820151816002015590505050565b60006020528060005260406000206000915090508060000180546101899061057a565b80601f01602080910402602001604051908101604052809291908181526020018280546101b59061057a565b80156102025780601f106101d757610100808354040283529160200191610202565b820191906000526020600020905b8154815290600101906020018083116101e557829003601f168201915b5050505050908060010160009054906101000a900473ffffffffffffffffffffffffffffffffffffffff16908060020154905083565b6000604051905090565b600080fd5b600080fd5b600080fd5b600080fd5b6000601f19601f8301169050919050565b7f4e487b7100000000000000000000000000000000000000000000000000000000600052604160045260246000fd5b61029f82610256565b810181811067ffffffffffffffff821117156102be576102bd610267565b5b80604052505050565b60006102d1610238565b90506102dd8282610296565b919050565b600067ffffffffffffffff8211156102fd576102fc610267565b5b61030682610256565b9050602081019050919050565b82818337600083830152505050565b6000610335610330846102e2565b6102c7565b90508281526020810184848401111561035157610350610251565b5b61035c848285610313565b509392505050565b600082601f8301126103795761037861024c565b5b8135610389848260208601610322565b91505092915050565b6000602082840312156103a8576103a7610242565b5b600082013567ffffffffffffffff8111156103c6576103c5610247565b5b6103d284828501610364565b91505092915050565b600073ffffffffffffffffffffffffffffffffffffffff82169050919050565b6000610406826103db565b9050919050565b610416816103fb565b811461042157600080fd5b50565b6000813590506104338161040d565b92915050565b60006020828403121561044f5761044e610242565b5b600061045d84828501610424565b91505092915050565b600081519050919050565b600082825260208201905092915050565b60005b838110156104a0578082015181840152602081019050610485565b60008484015250505050565b60006104b782610466565b6104c18185610471565b93506104d1818560208601610482565b6104da81610256565b840191505092915050565b6104ee816103fb565b82525050565b6000819050919050565b610507816104f4565b82525050565b6000606082019050818103600083015261052781866104ac565b905061053660208301856104e5565b61054360408301846104fe565b949350505050565b7f4e487b7100000000000000000000000000000000000000000000000000000000600052602260045260246000fd5b6000600282049050600182168061059257607f821691505b6020821081036105a5576105a461054b565b5b50919050565b60008190508160005260206000209050919050565b60006020601f8301049050919050565b600082821b905092915050565b60006008830261060d7fffffffffffffffffffffffffffffffffffffffffffffffffffffffffffffffff826105d0565b61061786836105d0565b95508019841693508086168417925050509392505050565b6000819050919050565b600061065461064f61064a846104f4565b61062f565b6104f4565b9050919050565b6000819050919050565b61066e83610639565b61068261067a8261065b565b8484546105dd565b825550505050565b600090565b61069761068a565b6106a2818484610665565b505050565b5b818110156106c6576106bb60008261068f565b6001810190506106a8565b5050565b601f82111561070b576106dc816105ab565b6106e5846105c0565b810160208510156106f4578190505b610708610700856105c0565b8301826106a7565b50505b505050565b600082821c905092915050565b600061072e60001984600802610710565b1980831691505092915050565b6000610747838361071d565b9150826002028217905092915050565b61076082610466565b67ffffffffffffffff81111561077957610778610267565b5b610783825461057a565b61078e8282856106ca565b600060209050601f8311600181146107c157600084156107af578287015190505b6107b9858261073b565b865550610821565b601f1984166107cf866105ab565b60005b828110156107f7578489015182556001820191506020850194506020810190506107d2565b868310156108145784890151610810601f89168261071d565b8355505b6001600288020188555050505b50505050505056fea2646970667358221220b8244a615e163250ccbf51e5bcdce08418d5188656e00d22f9eefc877e1abcde64736f6c634300081c0033",
  "linkReferences": {},
  "deployedLinkReferences": {}
}