{
  "_format": "hh-sol-artifact-1",
  "contractName": "TaskMarketplace",
  "sourceName": "contracts/TaskMarketplace.sol",
  "abi": [
    {
      "anonymous": false,
      "inputs": [
        {
          "indexed": true,
          "internalType": "uint256",
          "name": "id",
          "type": "uint256"
        },
        {
          "indexed": false,
          "internalType": "address",
          "name": "executor",
          "type": "address"
        }
      ],
      "name": "TaskCompleted",
      "type": "event"
    },
    {
      "anonymous": false,
      "inputs": [
        {
          "indexed": true,
          "internalType": "uint256",
          "name": "id",
          "type": "uint256"
        },
        {
          "indexed": false,
          "internalType": "string",
          "name": "description",
          "type": "string"
        }
      ],
      "name": "TaskCreated",
      "type": "event"
    },
    {
      "inputs": [
        {
          "internalType": "uint256",
          "name": "_taskId",
          "type": "uint256"
        }
      ],
      "name": "completeTask",
      "outputs": [],
      "stateMutability": "payable",
      "type": "function"
    },
    {
      "inputs": [
        {
          "internalType": "string",
          "name": "_description",
          "type": "string"
        },
        {
          "internalType": "uint256",
          "name": "_reward",
          "type": "uint256"
        }
      ],
      "name": "createTask",
      "outputs": [],
      "stateMutability": "nonpayable",
      "type": "function"
    },
    {
      "inputs": [
        {
          "internalType": "address",
          "name": "",
          "type": "address"
        },
        {
          "internalType": "uint256",
          "name": "",
          "type": "uint256"
        }
      ],
      "name": "creatorTasks",
      "outputs": [
        {
          "internalType": "uint256",
          "name": "",
          "type": "uint256"
        }
      ],
      "stateMutability": "view",
      "type": "function"
    },
    {
      "inputs": [
        {
          "internalType": "address",
          "name": "",
          "type": "address"
        },
        {
          "internalType": "uint256",
          "name": "",
          "type": "uint256"
        }
      ],
      "name": "executorTasks",
      "outputs": [
        {
          "internalType": "uint256",
          "name": "",
          "type": "uint256"
        }
      ],
      "stateMutability": "view",
      "type": "function"
    },
    {
      "inputs": [],
      "name": "getTaskCount",
      "outputs": [
        {
          "internalType": "uint256",
          "name": "",
          "type": "uint256"
        }
      ],
      "stateMutability": "view",
      "type": "function"
    },
    {
      "inputs": [
        {
          "internalType": "uint256",
          "name": "",
          "type": "uint256"
        }
      ],
      "name": "tasks",
      "outputs": [
        {
          "internalType": "uint256",
          "name": "id",
          "type": "uint256"
        },
        {
          "internalType": "string",
          "name": "description",
          "type": "string"
        },
        {
          "internalType": "uint256",
          "name": "reward",
          "type": "uint256"
        },
        {
          "internalType": "address",
          "name": "creator",
          "type": "address"
        },
        {
          "internalType": "address",
          "name": "executor",
          "type": "address"
        },
        {
          "internalType": "bool",
          "name": "isCompleted",
          "type": "bool"
        }
      ],
      "stateMutability": "view",
      "type": "function"
    },
    {
      "stateMutability": "payable",
      "type": "receive"
    }
  ],
  "bytecode": "0x6080604052348015600f57600080fd5b50610f838061001f6000396000f3fe6080604052600436106100595760003560e01c806304fe2b34146100655780638d9776721461008e578063b4b75b57146100d0578063c17a340e1461010d578063d9a391dd14610138578063e1e295581461017557610060565b3661006057005b600080fd5b34801561007157600080fd5b5061008c600480360381019061008791906108c9565b610191565b005b34801561009a57600080fd5b506100b560048036038101906100b09190610925565b61039f565b6040516100c796959493929190610a3c565b60405180910390f35b3480156100dc57600080fd5b506100f760048036038101906100f29190610ad0565b6104c0565b6040516101049190610b10565b60405180910390f35b34801561011957600080fd5b506101226104f1565b60405161012f9190610b10565b60405180910390f35b34801561014457600080fd5b5061015f600480360381019061015a9190610ad0565b6104fd565b60405161016c9190610b10565b60405180910390f35b61018f600480360381019061018a9190610925565b61052e565b005b60008080549050905060006040518060c001604052808381526020018581526020018481526020013373ffffffffffffffffffffffffffffffffffffffff168152602001600073ffffffffffffffffffffffffffffffffffffffff1681526020016000151581525090806001815401808255809150506001900390600052602060002090600502016000909190919091506000820151816000015560208201518160010190816102419190610d37565b506040820151816002015560608201518160030160006101000a81548173ffffffffffffffffffffffffffffffffffffffff021916908373ffffffffffffffffffffffffffffffffffffffff16021790555060808201518160040160006101000a81548173ffffffffffffffffffffffffffffffffffffffff021916908373ffffffffffffffffffffffffffffffffffffffff16021790555060a08201518160040160146101000a81548160ff0219169083151502179055505050600160003373ffffffffffffffffffffffffffffffffffffffff1673ffffffffffffffffffffffffffffffffffffffff168152602001908152602001600020819080600181540180825580915050600190039060005260206000200160009091909190915055807fa5ed9e6226c584326505694539c95cb0e3238ae09bcda5a65c00bbfdab1c6662846040516103929190610e09565b60405180910390a2505050565b600081815481106103af57600080fd5b90600052602060002090600502016000915090508060000154908060010180546103d890610b5a565b80601f016020809104026020016040519081016040528092919081815260200182805461040490610b5a565b80156104515780601f1061042657610100808354040283529160200191610451565b820191906000526020600020905b81548152906001019060200180831161043457829003601f168201915b5050505050908060020154908060030160009054906101000a900473ffffffffffffffffffffffffffffffffffffffff16908060040160009054906101000a900473ffffffffffffffffffffffffffffffffffffffff16908060040160149054906101000a900460ff16905086565b600260205281600052604060002081815481106104dc57600080fd5b90600052602060002001600091509150505481565b60008080549050905090565b6001602052816000526040600020818154811061051957600080fd5b90600052602060002001600091509150505481565b600080828154811061054357610542610e2b565b5b906000526020600020906005020190508060040160149054906101000a900460ff16156105a5576040517f08c379a000000000000000000000000000000000000000000000000000000000815260040161059c90610ea6565b60405180910390fd5b80600201544710156105ec576040517f08c379a00000000000000000000000000000000000000000000000000000000081526004016105e390610f12565b60405180910390fd5b60018160040160146101000a81548160ff021916908315150217905550338160040160006101000a81548173ffffffffffffffffffffffffffffffffffffffff021916908373ffffffffffffffffffffffffffffffffffffffff160217905550600260003373ffffffffffffffffffffffffffffffffffffffff1673ffffffffffffffffffffffffffffffffffffffff1681526020019081526020016000208290806001815401808255809150506001900390600052602060002001600090919091909150553373ffffffffffffffffffffffffffffffffffffffff166108fc82600201549081150290604051600060405180830381858888f193505050501580156106fc573d6000803e3d6000fd5b50817fbb5889c77948badf90e8a5c73d55265e5f5d6e4837a79a78c5669691b897faed3360405161072d9190610f32565b60405180910390a25050565b6000604051905090565b600080fd5b600080fd5b600080fd5b600080fd5b6000601f19601f8301169050919050565b7f4e487b7100000000000000000000000000000000000000000000000000000000600052604160045260246000fd5b6107a082610757565b810181811067ffffffffffffffff821117156107bf576107be610768565b5b80604052505050565b60006107d2610739565b90506107de8282610797565b919050565b600067ffffffffffffffff8211156107fe576107fd610768565b5b61080782610757565b9050602081019050919050565b82818337600083830152505050565b6000610836610831846107e3565b6107c8565b90508281526020810184848401111561085257610851610752565b5b61085d848285610814565b509392505050565b600082601f83011261087a5761087961074d565b5b813561088a848260208601610823565b91505092915050565b6000819050919050565b6108a681610893565b81146108b157600080fd5b50565b6000813590506108c38161089d565b92915050565b600080604083850312156108e0576108df610743565b5b600083013567ffffffffffffffff8111156108fe576108fd610748565b5b61090a85828601610865565b925050602061091b858286016108b4565b9150509250929050565b60006020828403121561093b5761093a610743565b5b6000610949848285016108b4565b91505092915050565b61095b81610893565b82525050565b600081519050919050565b600082825260208201905092915050565b60005b8381101561099b578082015181840152602081019050610980565b60008484015250505050565b60006109b282610961565b6109bc818561096c565b93506109cc81856020860161097d565b6109d581610757565b840191505092915050565b600073ffffffffffffffffffffffffffffffffffffffff82169050919050565b6000610a0b826109e0565b9050919050565b610a1b81610a00565b82525050565b60008115159050919050565b610a3681610a21565b82525050565b600060c082019050610a516000830189610952565b8181036020830152610a6381886109a7565b9050610a726040830187610952565b610a7f6060830186610a12565b610a8c6080830185610a12565b610a9960a0830184610a2d565b979650505050505050565b610aad81610a00565b8114610ab857600080fd5b50565b600081359050610aca81610aa4565b92915050565b60008060408385031215610ae757610ae6610743565b5b6000610af585828601610abb565b9250506020610b06858286016108b4565b9150509250929050565b6000602082019050610b256000830184610952565b92915050565b7f4e487b7100000000000000000000000000000000000000000000000000000000600052602260045260246000fd5b60006002820490506001821680610b7257607f821691505b602082108103610b8557610b84610b2b565b5b50919050565b60008190508160005260206000209050919050565b60006020601f8301049050919050565b600082821b905092915050565b600060088302610bed7fffffffffffffffffffffffffffffffffffffffffffffffffffffffffffffffff82610bb0565b610bf78683610bb0565b95508019841693508086168417925050509392505050565b6000819050919050565b6000610c34610c2f610c2a84610893565b610c0f565b610893565b9050919050565b6000819050919050565b610c4e83610c19565b610c62610c5a82610c3b565b848454610bbd565b825550505050565b600090565b610c77610c6a565b610c82818484610c45565b505050565b5b81811015610ca657610c9b600082610c6f565b600181019050610c88565b5050565b601f821115610ceb57610cbc81610b8b565b610cc584610ba0565b81016020851015610cd4578190505b610ce8610ce085610ba0565b830182610c87565b50505b505050565b600082821c905092915050565b6000610d0e60001984600802610cf0565b1980831691505092915050565b6000610d278383610cfd565b9150826002028217905092915050565b610d4082610961565b67ffffffffffffffff811115610d5957610d58610768565b5b610d638254610b5a565b610d6e828285610caa565b600060209050601f831160018114610da15760008415610d8f578287015190505b610d998582610d1b565b865550610e01565b601f198416610daf86610b8b565b60005b82811015610dd757848901518255600182019150602085019450602081019050610db2565b86831015610df45784890151610df0601f891682610cfd565b8355505b6001600288020188555050505b505050505050565b60006020820190508181036000830152610e2381846109a7565b905092915050565b7f4e487b7100000000000000000000000000000000000000000000000000000000600052603260045260246000fd5b7f5461736b20616c726561647920636f6d706c6574656400000000000000000000600082015250565b6000610e9060168361096c565b9150610e9b82610e5a565b602082019050919050565b60006020820190508181036000830152610ebf81610e83565b9050919050565b7f496e73756666696369656e7420636f6e74726163742062616c616e6365000000600082015250565b6000610efc601d8361096c565b9150610f0782610ec6565b602082019050919050565b60006020820190508181036000830152610f2b81610eef565b9050919050565b6000602082019050610f476000830184610a12565b9291505056fea2646970667358221220cb1489b18bf5df8fb0fb05b383db7c7f32eaa920d2f8063fb02e66de217433ad64736f6c634300081c0033",
  "linkReferences": {},
  "deployedLinkReferences": {}
}